{
  "contractName": "Calculator",
  "abi": [
    {
      "inputs": [],
      "name": "a",
      "outputs": [
        {
          "internalType": "uint256",
          "name": "",
          "type": "uint256"
        }
      ],
      "stateMutability": "view",
      "type": "function",
      "constant": true
    },
    {
      "inputs": [],
      "name": "b",
      "outputs": [
        {
          "internalType": "uint256",
          "name": "",
          "type": "uint256"
        }
      ],
      "stateMutability": "view",
      "type": "function",
      "constant": true
    },
    {
      "inputs": [],
      "name": "add",
      "outputs": [
        {
          "internalType": "uint256",
          "name": "",
          "type": "uint256"
        }
      ],
      "stateMutability": "view",
      "type": "function",
      "constant": true
    },
    {
      "inputs": [],
      "name": "sub",
      "outputs": [
        {
          "internalType": "uint256",
          "name": "",
          "type": "uint256"
        }
      ],
      "stateMutability": "view",
      "type": "function",
      "constant": true
    },
    {
      "inputs": [],
      "name": "mul",
      "outputs": [
        {
          "internalType": "uint256",
          "name": "",
          "type": "uint256"
        }
      ],
      "stateMutability": "view",
      "type": "function",
      "constant": true
    },
    {
      "inputs": [],
      "name": "div",
      "outputs": [
        {
          "internalType": "uint256",
          "name": "",
          "type": "uint256"
        }
      ],
      "stateMutability": "view",
      "type": "function",
      "constant": true
    },
    {
      "inputs": [
        {
          "internalType": "uint256",
          "name": "_a",
          "type": "uint256"
        },
        {
          "internalType": "uint256",
          "name": "_b",
          "type": "uint256"
        }
      ],
      "name": "set",
      "outputs": [],
      "stateMutability": "nonpayable",
      "type": "function"
    },
    {
      "inputs": [],
      "name": "setAToMax",
      "outputs": [],
      "stateMutability": "nonpayable",
      "type": "function"
    }
  ],
  "bytecode": "0x608060405234801561001057600080fd5b506105f2806100206000396000f3fe608060405234801561001057600080fd5b50600436106100885760003560e01c806358931c461161005b57806358931c46146101035780636ed2111f14610121578063c54124be1461012b578063f9fa48c31461014957610088565b80630dbe671f1461008d5780631ab06ee5146100ab5780634df7e3d0146100c75780634f2be91f146100e5575b600080fd5b610095610167565b6040516100a291906102ae565b60405180910390f35b6100c560048036038101906100c091906102fa565b61016d565b005b6100cf61017f565b6040516100dc91906102ae565b60405180910390f35b6100ed610185565b6040516100fa91906102ae565b60405180910390f35b61010b61019c565b60405161011891906102ae565b60405180910390f35b6101296101b3565b005b6101336101dc565b60405161014091906102ae565b60405180910390f35b61015161023a565b60405161015e91906102ae565b60405180910390f35b60005481565b81600081905550806001819055505050565b60015481565b60006001546000546101979190610369565b905090565b60006001546000546101ae91906103bf565b905090565b7fffffffffffffffffffffffffffffffffffffffffffffffffffffffffffffffff600081905550565b60006001546000541015610225576040517f08c379a000000000000000000000000000000000000000000000000000000000815260040161021c9061049c565b60405180910390fd5b60015460005461023591906104bc565b905090565b60008060015403610280576040517f08c379a00000000000000000000000000000000000000000000000000000000081526004016102779061053c565b60405180910390fd5b600154600054610290919061058b565b905090565b6000819050919050565b6102a881610295565b82525050565b60006020820190506102c3600083018461029f565b92915050565b600080fd5b6102d781610295565b81146102e257600080fd5b50565b6000813590506102f4816102ce565b92915050565b60008060408385031215610311576103106102c9565b5b600061031f858286016102e5565b9250506020610330858286016102e5565b9150509250929050565b7f4e487b7100000000000000000000000000000000000000000000000000000000600052601160045260246000fd5b600061037482610295565b915061037f83610295565b9250827fffffffffffffffffffffffffffffffffffffffffffffffffffffffffffffffff038211156103b4576103b361033a565b5b828201905092915050565b60006103ca82610295565b91506103d583610295565b9250817fffffffffffffffffffffffffffffffffffffffffffffffffffffffffffffffff048311821515161561040e5761040d61033a565b5b828202905092915050565b600082825260208201905092915050565b7f62206d757374206265206c657373207468616e206f7220657175616c20746f2060008201527f6100000000000000000000000000000000000000000000000000000000000000602082015250565b6000610486602183610419565b91506104918261042a565b604082019050919050565b600060208201905081810360008301526104b581610479565b9050919050565b60006104c782610295565b91506104d283610295565b9250828210156104e5576104e461033a565b5b828203905092915050565b7f622063616e2774206265207a65726f0000000000000000000000000000000000600082015250565b6000610526600f83610419565b9150610531826104f0565b602082019050919050565b6000602082019050818103600083015261055581610519565b9050919050565b7f4e487b7100000000000000000000000000000000000000000000000000000000600052601260045260246000fd5b600061059682610295565b91506105a183610295565b9250826105b1576105b061055c565b5b82820490509291505056fea2646970667358221220bc3a4a49859bed4fba08cafcec0e5f5e4971fb755718fe2402ef0f06300055bf64736f6c634300080e0033",
  "immutableReferences": {},
  "source": "// SPDX-License-Identifier: GPL-3.0\n\npragma solidity >=0.7.0 <0.9.0;\n\ncontract Calculator{\n    uint public a;\n    uint public b;\n\n    function add() public view returns(uint256) { \n      return a+b;\n    }\n    function sub () public view returns(uint256) {\n      require(a>=b , \"b must be less than or equal to a\");\n      return a - b; \n    } \n    function mul () public view returns(uint256){\n       return a * b; \n    }\n    function div () public view returns(uint256){ \n      require(b != 0 , \"b can't be zero\");\n      return a / b; \n    } \n    function set(uint _a, uint _b) public{\n         a = _a;\n         b = _b;\n    }\n    function setAToMax() public { \n        a = type(uint).max;\n    }\n}",
  "sourcePath": "/home/viraj/Desktop/SmartContractTesting/contracts/Calculator.sol",
  "compiler": {
    "name": "solc",
    "version": "0.8.14+commit.80d49f37.Emscripten.clang"
  },
  "schemaVersion": "3.4.7",
  "updatedAt": "2022-08-09T09:23:47.979Z",
  "networkType": "ethereum",
  "devdoc": {
    "kind": "dev",
    "methods": {},
    "version": 1
  },
  "userdoc": {
    "kind": "user",
    "methods": {},
    "version": 1
  }
}