{
  "contractName": "enumContract",
  "abi": [
    {
      "inputs": [],
      "name": "RSVP",
      "outputs": [
        {
          "internalType": "enum enumContract.choice",
          "name": "",
          "type": "uint8"
        }
      ],
      "stateMutability": "view",
      "type": "function",
      "constant": true
    },
    {
      "inputs": [
        {
          "internalType": "enum enumContract.choice",
          "name": "choices",
          "type": "uint8"
        }
      ],
      "name": "changeEnum",
      "outputs": [],
      "stateMutability": "nonpayable",
      "type": "function"
    }
  ],
  "bytecode": "0x608060405260026000806101000a81548160ff0219169083600281111561002957610028610040565b5b021790555034801561003a57600080fd5b5061006f565b7f4e487b7100000000000000000000000000000000000000000000000000000000600052602160045260246000fd5b6101d18061007e6000396000f3fe608060405234801561001057600080fd5b50600436106100365760003560e01c806335c5c0831461003b5780636c37dd3314610059575b600080fd5b610043610075565b6040516100509190610129565b60405180910390f35b610073600480360381019061006e919061016e565b610086565b005b60008054906101000a900460ff1681565b806000806101000a81548160ff021916908360028111156100aa576100a96100b2565b5b021790555050565b7f4e487b7100000000000000000000000000000000000000000000000000000000600052602160045260246000fd5b600381106100f2576100f16100b2565b5b50565b6000819050610103826100e1565b919050565b6000610113826100f5565b9050919050565b61012381610108565b82525050565b600060208201905061013e600083018461011a565b92915050565b600080fd5b6003811061015657600080fd5b50565b60008135905061016881610149565b92915050565b60006020828403121561018457610183610144565b5b600061019284828501610159565b9150509291505056fea264697066735822122067657c5fab18ee847c5ebd71c20a81ca23cdd5d525a38fe38a573364f48b7d4b64736f6c634300080e0033",
  "immutableReferences": {},
  "source": "// SPDX-License-Identifier: MIT\n\npragma solidity ^0.8.0;\n\ncontract enumContract{\n  enum choice { yes , no , maybe}\n  choice public RSVP = choice.maybe;\n  function changeEnum(choice choices) public{\n    RSVP = choices;\n  }\n}",
  "sourcePath": "/home/viraj/Desktop/smartContractTesting/contracts/Enum.sol",
  "compiler": {
    "name": "solc",
    "version": "0.8.14+commit.80d49f37.Emscripten.clang"
  },
  "schemaVersion": "3.4.7",
  "updatedAt": "2022-08-16T03:51:44.322Z",
  "networkType": "ethereum",
  "devdoc": {
    "kind": "dev",
    "methods": {},
    "version": 1
  },
  "userdoc": {
    "kind": "user",
    "methods": {},
    "version": 1
  }
}