{
  "contractName": "eventContract",
  "abi": [
    {
      "anonymous": false,
      "inputs": [
        {
          "indexed": false,
          "internalType": "uint256",
          "name": "timestamp",
          "type": "uint256"
        },
        {
          "indexed": false,
          "internalType": "string",
          "name": "reason",
          "type": "string"
        }
      ],
      "name": "functionCalled",
      "type": "event"
    },
    {
      "inputs": [
        {
          "internalType": "string",
          "name": "reason",
          "type": "string"
        }
      ],
      "name": "callEvent",
      "outputs": [],
      "stateMutability": "nonpayable",
      "type": "function"
    }
  ],
  "bytecode": "0x608060405234801561001057600080fd5b50610332806100206000396000f3fe608060405234801561001057600080fd5b506004361061002b5760003560e01c806379f861c414610030575b600080fd5b61004a600480360381019061004591906101e2565b61004c565b005b7fbe1a637540f4156696ff7fdf460796c1bf201d4235af19b0d415815c98fe8a35428260405161007d9291906102cc565b60405180910390a150565b6000604051905090565b600080fd5b600080fd5b600080fd5b600080fd5b6000601f19601f8301169050919050565b7f4e487b7100000000000000000000000000000000000000000000000000000000600052604160045260246000fd5b6100ef826100a6565b810181811067ffffffffffffffff8211171561010e5761010d6100b7565b5b80604052505050565b6000610121610088565b905061012d82826100e6565b919050565b600067ffffffffffffffff82111561014d5761014c6100b7565b5b610156826100a6565b9050602081019050919050565b82818337600083830152505050565b600061018561018084610132565b610117565b9050828152602081018484840111156101a1576101a06100a1565b5b6101ac848285610163565b509392505050565b600082601f8301126101c9576101c861009c565b5b81356101d9848260208601610172565b91505092915050565b6000602082840312156101f8576101f7610092565b5b600082013567ffffffffffffffff81111561021657610215610097565b5b610222848285016101b4565b91505092915050565b6000819050919050565b61023e8161022b565b82525050565b600081519050919050565b600082825260208201905092915050565b60005b8381101561027e578082015181840152602081019050610263565b8381111561028d576000848401525b50505050565b600061029e82610244565b6102a8818561024f565b93506102b8818560208601610260565b6102c1816100a6565b840191505092915050565b60006040820190506102e16000830185610235565b81810360208301526102f38184610293565b9050939250505056fea2646970667358221220ef6630fd2b65d05dee53a3fba90584f37380e7da84680228b66ba55d821aba3464736f6c634300080e0033",
  "immutableReferences": {},
  "source": "// SPDX-License-Identifier: MIT\n\npragma solidity ^0.8.0;\ncontract eventContract {\n  event functionCalled(uint timestamp ,string reason); \n  function callEvent (string  memory reason) public {\n    emit functionCalled(block.timestamp,reason);\n  }\n}",
  "sourcePath": "/home/viraj/Desktop/smartContractTesting/contracts/Event.sol",
  "compiler": {
    "name": "solc",
    "version": "0.8.14+commit.80d49f37.Emscripten.clang"
  },
  "schemaVersion": "3.4.7",
  "updatedAt": "2022-08-16T03:51:45.096Z",
  "networkType": "ethereum",
  "devdoc": {
    "kind": "dev",
    "methods": {},
    "version": 1
  },
  "userdoc": {
    "kind": "user",
    "methods": {},
    "version": 1
  }
}