{
  "contractName": "mappingContract",
  "abi": [
    {
      "inputs": [
        {
          "internalType": "uint256",
          "name": "",
          "type": "uint256"
        },
        {
          "internalType": "address",
          "name": "",
          "type": "address"
        },
        {
          "internalType": "address",
          "name": "",
          "type": "address"
        }
      ],
      "name": "doubleNestedMapping",
      "outputs": [
        {
          "internalType": "string",
          "name": "",
          "type": "string"
        }
      ],
      "stateMutability": "view",
      "type": "function",
      "constant": true
    },
    {
      "inputs": [
        {
          "internalType": "uint256",
          "name": "",
          "type": "uint256"
        },
        {
          "internalType": "address",
          "name": "",
          "type": "address"
        }
      ],
      "name": "nestedMapping",
      "outputs": [
        {
          "internalType": "bool",
          "name": "",
          "type": "bool"
        }
      ],
      "stateMutability": "view",
      "type": "function",
      "constant": true
    },
    {
      "inputs": [
        {
          "internalType": "address",
          "name": "",
          "type": "address"
        }
      ],
      "name": "normalMapping",
      "outputs": [
        {
          "internalType": "uint256",
          "name": "",
          "type": "uint256"
        }
      ],
      "stateMutability": "view",
      "type": "function",
      "constant": true
    },
    {
      "inputs": [
        {
          "internalType": "uint256",
          "name": "a",
          "type": "uint256"
        }
      ],
      "name": "setElement",
      "outputs": [],
      "stateMutability": "nonpayable",
      "type": "function"
    },
    {
      "inputs": [
        {
          "internalType": "uint256",
          "name": "a",
          "type": "uint256"
        },
        {
          "internalType": "bool",
          "name": "b",
          "type": "bool"
        }
      ],
      "name": "setElementNestedMapping",
      "outputs": [],
      "stateMutability": "nonpayable",
      "type": "function"
    },
    {
      "inputs": [
        {
          "internalType": "uint256",
          "name": "i",
          "type": "uint256"
        },
        {
          "internalType": "address",
          "name": "a",
          "type": "address"
        },
        {
          "internalType": "address",
          "name": "b",
          "type": "address"
        },
        {
          "internalType": "string",
          "name": "c",
          "type": "string"
        }
      ],
      "name": "setElementinDoubleNestedMapping",
      "outputs": [],
      "stateMutability": "nonpayable",
      "type": "function"
    }
  ],
  "bytecode": "0x608060405234801561001057600080fd5b506108da806100206000396000f3fe608060405234801561001057600080fd5b50600436106100625760003560e01c806326beacca1461006757806362c6ca461461009757806376ac1040146100c7578063c14d8537146100e3578063d310efe6146100ff578063ec2ee4b91461011b575b600080fd5b610081600480360381019061007c91906104ad565b61014b565b60405161008e91906104f3565b60405180910390f35b6100b160048036038101906100ac919061053a565b610163565b6040516100be9190610595565b60405180910390f35b6100e160048036038101906100dc91906105dc565b610192565b005b6100fd60048036038101906100f8919061061c565b6101fe565b005b610119600480360381019061011491906106ae565b610244565b005b61013560048036038101906101309190610736565b6102e8565b6040516101429190610822565b60405180910390f35b60006020528060005260406000206000915090505481565b60016020528160005260406000206020528060005260406000206000915091509054906101000a900460ff1681565b806001600084815260200190815260200160002060003373ffffffffffffffffffffffffffffffffffffffff1673ffffffffffffffffffffffffffffffffffffffff16815260200190815260200160002060006101000a81548160ff0219169083151502179055505050565b806000803373ffffffffffffffffffffffffffffffffffffffff1673ffffffffffffffffffffffffffffffffffffffff1681526020019081526020016000208190555050565b81816002600088815260200190815260200160002060008773ffffffffffffffffffffffffffffffffffffffff1673ffffffffffffffffffffffffffffffffffffffff16815260200190815260200160002060008673ffffffffffffffffffffffffffffffffffffffff1673ffffffffffffffffffffffffffffffffffffffff16815260200190815260200160002091906102e09291906103a2565b505050505050565b60026020528260005260406000206020528160005260406000206020528060005260406000206000925092505050805461032190610873565b80601f016020809104026020016040519081016040528092919081815260200182805461034d90610873565b801561039a5780601f1061036f5761010080835404028352916020019161039a565b820191906000526020600020905b81548152906001019060200180831161037d57829003601f168201915b505050505081565b8280546103ae90610873565b90600052602060002090601f0160209004810192826103d05760008555610417565b82601f106103e957803560ff1916838001178555610417565b82800160010185558215610417579182015b828111156104165782358255916020019190600101906103fb565b5b5090506104249190610428565b5090565b5b80821115610441576000816000905550600101610429565b5090565b600080fd5b600080fd5b600073ffffffffffffffffffffffffffffffffffffffff82169050919050565b600061047a8261044f565b9050919050565b61048a8161046f565b811461049557600080fd5b50565b6000813590506104a781610481565b92915050565b6000602082840312156104c3576104c2610445565b5b60006104d184828501610498565b91505092915050565b6000819050919050565b6104ed816104da565b82525050565b600060208201905061050860008301846104e4565b92915050565b610517816104da565b811461052257600080fd5b50565b6000813590506105348161050e565b92915050565b6000806040838503121561055157610550610445565b5b600061055f85828601610525565b925050602061057085828601610498565b9150509250929050565b60008115159050919050565b61058f8161057a565b82525050565b60006020820190506105aa6000830184610586565b92915050565b6105b98161057a565b81146105c457600080fd5b50565b6000813590506105d6816105b0565b92915050565b600080604083850312156105f3576105f2610445565b5b600061060185828601610525565b9250506020610612858286016105c7565b9150509250929050565b60006020828403121561063257610631610445565b5b600061064084828501610525565b91505092915050565b600080fd5b600080fd5b600080fd5b60008083601f84011261066e5761066d610649565b5b8235905067ffffffffffffffff81111561068b5761068a61064e565b5b6020830191508360018202830111156106a7576106a6610653565b5b9250929050565b6000806000806000608086880312156106ca576106c9610445565b5b60006106d888828901610525565b95505060206106e988828901610498565b94505060406106fa88828901610498565b935050606086013567ffffffffffffffff81111561071b5761071a61044a565b5b61072788828901610658565b92509250509295509295909350565b60008060006060848603121561074f5761074e610445565b5b600061075d86828701610525565b935050602061076e86828701610498565b925050604061077f86828701610498565b9150509250925092565b600081519050919050565b600082825260208201905092915050565b60005b838110156107c35780820151818401526020810190506107a8565b838111156107d2576000848401525b50505050565b6000601f19601f8301169050919050565b60006107f482610789565b6107fe8185610794565b935061080e8185602086016107a5565b610817816107d8565b840191505092915050565b6000602082019050818103600083015261083c81846107e9565b905092915050565b7f4e487b7100000000000000000000000000000000000000000000000000000000600052602260045260246000fd5b6000600282049050600182168061088b57607f821691505b60208210810361089e5761089d610844565b5b5091905056fea2646970667358221220e961412ba8aa352c3f55f6086829a45de85cb811747e24d045abdb36eace13e564736f6c634300080e0033",
  "immutableReferences": {},
  "source": "// SPDX-License-Identifier: MIT\npragma solidity >=0.4.22 <0.9.0;\n\ncontract mappingContract{\n  mapping(address => uint) public normalMapping;\n  mapping(uint => mapping (address => bool)) public nestedMapping;\n  mapping(uint => mapping (address => mapping( address => string))) public doubleNestedMapping;\n  function setElement(uint a) public {\n    normalMapping[msg.sender] = a;\n  }\n  function setElementNestedMapping(uint a , bool b) public {\n    nestedMapping[a][msg.sender] = b;\n  }\n  function setElementinDoubleNestedMapping(uint i, address a, address b, string calldata c) public {\n    doubleNestedMapping[i][a][b] = c;\n  }\n}",
  "sourcePath": "/home/viraj/Desktop/smartContractTesting/contracts/MappingContract.sol",
  "compiler": {
    "name": "solc",
    "version": "0.8.14+commit.80d49f37.Emscripten.clang"
  },
  "schemaVersion": "3.4.7",
  "updatedAt": "2022-08-16T03:51:42.186Z",
  "networkType": "ethereum",
  "devdoc": {
    "kind": "dev",
    "methods": {},
    "version": 1
  },
  "userdoc": {
    "kind": "user",
    "methods": {},
    "version": 1
  }
}