{
  "contractName": "structContract",
  "abi": [
    {
      "inputs": [
        {
          "internalType": "uint256",
          "name": "",
          "type": "uint256"
        }
      ],
      "name": "CarMapping",
      "outputs": [
        {
          "internalType": "string",
          "name": "name",
          "type": "string"
        },
        {
          "internalType": "uint256",
          "name": "maxSpeed",
          "type": "uint256"
        }
      ],
      "stateMutability": "view",
      "type": "function",
      "constant": true
    },
    {
      "inputs": [
        {
          "internalType": "uint256",
          "name": "",
          "type": "uint256"
        },
        {
          "internalType": "uint256",
          "name": "",
          "type": "uint256"
        }
      ],
      "name": "CarMappingArr",
      "outputs": [
        {
          "internalType": "string",
          "name": "name",
          "type": "string"
        },
        {
          "internalType": "uint256",
          "name": "maxSpeed",
          "type": "uint256"
        }
      ],
      "stateMutability": "view",
      "type": "function",
      "constant": true
    },
    {
      "inputs": [],
      "name": "structExample",
      "outputs": [
        {
          "internalType": "uint256",
          "name": "registration_id",
          "type": "uint256"
        },
        {
          "internalType": "string",
          "name": "name",
          "type": "string"
        }
      ],
      "stateMutability": "view",
      "type": "function",
      "constant": true
    },
    {
      "inputs": [
        {
          "internalType": "uint256",
          "name": "",
          "type": "uint256"
        }
      ],
      "name": "todos",
      "outputs": [
        {
          "internalType": "string",
          "name": "text",
          "type": "string"
        },
        {
          "internalType": "bool",
          "name": "completed",
          "type": "bool"
        }
      ],
      "stateMutability": "view",
      "type": "function",
      "constant": true
    },
    {
      "inputs": [
        {
          "internalType": "string",
          "name": "_text",
          "type": "string"
        }
      ],
      "name": "create",
      "outputs": [],
      "stateMutability": "nonpayable",
      "type": "function"
    },
    {
      "inputs": [
        {
          "internalType": "uint256",
          "name": "index",
          "type": "uint256"
        },
        {
          "internalType": "string",
          "name": "name",
          "type": "string"
        },
        {
          "internalType": "uint256",
          "name": "maxSpeed",
          "type": "uint256"
        }
      ],
      "name": "addCar",
      "outputs": [],
      "stateMutability": "nonpayable",
      "type": "function"
    },
    {
      "inputs": [
        {
          "internalType": "uint256",
          "name": "index",
          "type": "uint256"
        },
        {
          "internalType": "string",
          "name": "name",
          "type": "string"
        },
        {
          "internalType": "uint256",
          "name": "maxSpeed",
          "type": "uint256"
        }
      ],
      "name": "addCarToMOSA",
      "outputs": [],
      "stateMutability": "nonpayable",
      "type": "function"
    }
  ],
  "bytecode": "0x60806040526040518060400160405280601381526020016040518060400160405280600581526020017f766972616a0000000000000000000000000000000000000000000000000000008152508152506000808201518160000155602082015181600101908051906020019061007692919061008b565b50505034801561008557600080fd5b5061018e565b8280546100979061015d565b90600052602060002090601f0160209004810192826100b95760008555610100565b82601f106100d257805160ff1916838001178555610100565b82800160010185558215610100579182015b828111156100ff5782518255916020019190600101906100e4565b5b50905061010d9190610111565b5090565b5b8082111561012a576000816000905550600101610112565b5090565b7f4e487b7100000000000000000000000000000000000000000000000000000000600052602260045260246000fd5b6000600282049050600182168061017557607f821691505b6020821081036101885761018761012e565b5b50919050565b610b94806200019e6000396000f3fe608060405234801561001057600080fd5b506004361061007d5760003560e01c8063ab2a45e91161005b578063ab2a45e914610100578063b6a46b3b1461011c578063bc8bc2b414610138578063e11f3413146101695761007d565b806327c823da1461008257806376f7231d1461009e57806384f11a37146100cf575b600080fd5b61009c60048036038101906100979190610833565b610188565b005b6100b860048036038101906100b391906108a2565b610207565b6040516100c6929190610966565b60405180910390f35b6100e960048036038101906100e49190610996565b6102b3565b6040516100f7929190610966565b60405180910390f35b61011a60048036038101906101159190610833565b61037c565b005b61013660048036038101906101319190610a36565b6103d3565b005b610152600480360381019061014d91906108a2565b61049d565b604051610160929190610a9e565b60405180910390f35b610171610566565b60405161017f929190610ace565b60405180910390f35b60046000848152602001908152602001600020604051806040016040528084815260200183815250908060018154018082558091505060019003906000526020600020906002020160009091909190915060008201518160000190805190602001906101f5929190610600565b50602082015181600101555050505050565b600360205280600052604060002060009150905080600001805461022a90610b2d565b80601f016020809104026020016040519081016040528092919081815260200182805461025690610b2d565b80156102a35780601f10610278576101008083540402835291602001916102a3565b820191906000526020600020905b81548152906001019060200180831161028657829003601f168201915b5050505050908060010154905082565b600460205281600052604060002081815481106102cf57600080fd5b9060005260206000209060020201600091509150508060000180546102f390610b2d565b80601f016020809104026020016040519081016040528092919081815260200182805461031f90610b2d565b801561036c5780601f106103415761010080835404028352916020019161036c565b820191906000526020600020905b81548152906001019060200180831161034f57829003601f168201915b5050505050908060010154905082565b6040518060400160405280838152602001828152506003600085815260200190815260200160002060008201518160000190805190602001906103c0929190610600565b5060208201518160010155905050505050565b6002604051806040016040528084848080601f016020809104026020016040519081016040528093929190818152602001838380828437600081840152601f19601f8201169050808301925050505050505081526020016000151581525090806001815401808255809150506001900390600052602060002090600202016000909190919091506000820151816000019080519060200190610476929190610600565b5060208201518160010160006101000a81548160ff02191690831515021790555050505050565b600281815481106104ad57600080fd5b90600052602060002090600202016000915090508060000180546104d090610b2d565b80601f01602080910402602001604051908101604052809291908181526020018280546104fc90610b2d565b80156105495780601f1061051e57610100808354040283529160200191610549565b820191906000526020600020905b81548152906001019060200180831161052c57829003601f168201915b5050505050908060010160009054906101000a900460ff16905082565b600080600001549080600101805461057d90610b2d565b80601f01602080910402602001604051908101604052809291908181526020018280546105a990610b2d565b80156105f65780601f106105cb576101008083540402835291602001916105f6565b820191906000526020600020905b8154815290600101906020018083116105d957829003601f168201915b5050505050905082565b82805461060c90610b2d565b90600052602060002090601f01602090048101928261062e5760008555610675565b82601f1061064757805160ff1916838001178555610675565b82800160010185558215610675579182015b82811115610674578251825591602001919060010190610659565b5b5090506106829190610686565b5090565b5b8082111561069f576000816000905550600101610687565b5090565b6000604051905090565b600080fd5b600080fd5b6000819050919050565b6106ca816106b7565b81146106d557600080fd5b50565b6000813590506106e7816106c1565b92915050565b600080fd5b600080fd5b6000601f19601f8301169050919050565b7f4e487b7100000000000000000000000000000000000000000000000000000000600052604160045260246000fd5b610740826106f7565b810181811067ffffffffffffffff8211171561075f5761075e610708565b5b80604052505050565b60006107726106a3565b905061077e8282610737565b919050565b600067ffffffffffffffff82111561079e5761079d610708565b5b6107a7826106f7565b9050602081019050919050565b82818337600083830152505050565b60006107d66107d184610783565b610768565b9050828152602081018484840111156107f2576107f16106f2565b5b6107fd8482856107b4565b509392505050565b600082601f83011261081a576108196106ed565b5b813561082a8482602086016107c3565b91505092915050565b60008060006060848603121561084c5761084b6106ad565b5b600061085a868287016106d8565b935050602084013567ffffffffffffffff81111561087b5761087a6106b2565b5b61088786828701610805565b9250506040610898868287016106d8565b9150509250925092565b6000602082840312156108b8576108b76106ad565b5b60006108c6848285016106d8565b91505092915050565b600081519050919050565b600082825260208201905092915050565b60005b838110156109095780820151818401526020810190506108ee565b83811115610918576000848401525b50505050565b6000610929826108cf565b61093381856108da565b93506109438185602086016108eb565b61094c816106f7565b840191505092915050565b610960816106b7565b82525050565b60006040820190508181036000830152610980818561091e565b905061098f6020830184610957565b9392505050565b600080604083850312156109ad576109ac6106ad565b5b60006109bb858286016106d8565b92505060206109cc858286016106d8565b9150509250929050565b600080fd5b600080fd5b60008083601f8401126109f6576109f56106ed565b5b8235905067ffffffffffffffff811115610a1357610a126109d6565b5b602083019150836001820283011115610a2f57610a2e6109db565b5b9250929050565b60008060208385031215610a4d57610a4c6106ad565b5b600083013567ffffffffffffffff811115610a6b57610a6a6106b2565b5b610a77858286016109e0565b92509250509250929050565b60008115159050919050565b610a9881610a83565b82525050565b60006040820190508181036000830152610ab8818561091e565b9050610ac76020830184610a8f565b9392505050565b6000604082019050610ae36000830185610957565b8181036020830152610af5818461091e565b90509392505050565b7f4e487b7100000000000000000000000000000000000000000000000000000000600052602260045260246000fd5b60006002820490506001821680610b4557607f821691505b602082108103610b5857610b57610afe565b5b5091905056fea26469706673582212203213c5d10a5fc9e0c68a466bc37ee8496f44844dcb83584d87c003759db8273c64736f6c634300080e0033",
  "immutableReferences": {},
  "source": "// SPDX-License-Identifier: MIT\n\npragma solidity ^0.8.0;\n\ncontract structContract {\n\n  //simple struct \n\n  struct Student{\n    uint registration_id;\n    string name;\n  }\n\n  Student public structExample = Student (19 , \"viraj\");\n\n  //array of struct\n  \n  struct Todo{\n        string text;\n        bool completed;\n  }\n\n  Todo [] public todos;\n\n  function create(string calldata _text) external{\n        todos.push (Todo({text : _text , completed: false}));\n  }\n  \n  //Mapping of struct\n\n  struct Car{\n    string name;\n    uint maxSpeed;\n  }\n\n  mapping (uint => Car) public CarMapping;\n\n  function addCar(uint index, string memory name, uint maxSpeed) public {\n    CarMapping[ index ] = Car(name,maxSpeed);\n  }\n\n  // mapping of struct array\n\n  mapping (uint => Car[]) public CarMappingArr;\n  function addCarToMOSA(uint index , string memory name, uint maxSpeed) public { \n    CarMappingArr[index].push(Car(name,maxSpeed));\n   }\n}\n",
  "sourcePath": "/home/viraj/Desktop/smartContractTesting/contracts/structure.sol",
  "compiler": {
    "name": "solc",
    "version": "0.8.14+commit.80d49f37.Emscripten.clang"
  },
  "schemaVersion": "3.4.7",
  "updatedAt": "2022-08-16T03:51:43.625Z",
  "networkType": "ethereum",
  "devdoc": {
    "kind": "dev",
    "methods": {},
    "version": 1
  },
  "userdoc": {
    "kind": "user",
    "methods": {},
    "version": 1
  }
}