{
  "contractName": "Visibility",
  "abi": [
    {
      "inputs": [],
      "name": "a",
      "outputs": [
        {
          "internalType": "uint256",
          "name": "",
          "type": "uint256"
        }
      ],
      "stateMutability": "view",
      "type": "function",
      "constant": true
    },
    {
      "inputs": [],
      "name": "pub",
      "outputs": [
        {
          "internalType": "uint256",
          "name": "",
          "type": "uint256"
        }
      ],
      "stateMutability": "pure",
      "type": "function",
      "constant": true
    },
    {
      "inputs": [],
      "name": "priv",
      "outputs": [
        {
          "internalType": "uint256",
          "name": "",
          "type": "uint256"
        }
      ],
      "stateMutability": "pure",
      "type": "function",
      "constant": true
    },
    {
      "inputs": [],
      "name": "ext",
      "outputs": [
        {
          "internalType": "uint256",
          "name": "",
          "type": "uint256"
        }
      ],
      "stateMutability": "pure",
      "type": "function",
      "constant": true
    }
  ],
  "bytecode": "0x6080604052600a600055600a600155600a60025534801561001f57600080fd5b506101548061002f6000396000f3fe608060405234801561001057600080fd5b506004361061004c5760003560e01c80630dbe671f146100515780635c0f48451461006f5780637defb4101461008d578063cf9f23b5146100ab575b600080fd5b6100596100c9565b6040516100669190610103565b60405180910390f35b6100776100cf565b6040516100849190610103565b60405180910390f35b6100956100d8565b6040516100a29190610103565b60405180910390f35b6100b36100e1565b6040516100c09190610103565b60405180910390f35b60005481565b6000600a905090565b6000600a905090565b60006019905090565b6000819050919050565b6100fd816100ea565b82525050565b600060208201905061011860008301846100f4565b9291505056fea26469706673582212205b937152b42c9d9ac937215a12d41655f7ab833721e71809e82cd9d73d22309864736f6c634300080e0033",
  "immutableReferences": {},
  "source": "// SPDX-License-Identifier: MIT\n\npragma solidity ^0.8.0;\ncontract Visibility{\n  uint public a = 10;\n  uint internal b = 10;\n  uint private c = 10;\n\n  function pub() public pure returns(uint){\n    return 10;\n  }\n\n  function priv() public pure returns(uint){ \n    return 10;\n  }\n\n  function intern() internal pure returns(uint){\n    return 10;\n  }\n\n  function ext() external pure returns(uint){\n      return 25;\n  }\n\n}",
  "sourcePath": "/home/viraj/Desktop/smartContractTesting/contracts/Visibility.sol",
  "compiler": {
    "name": "solc",
    "version": "0.8.14+commit.80d49f37.Emscripten.clang"
  },
  "schemaVersion": "3.4.7",
  "updatedAt": "2022-08-16T03:51:42.890Z",
  "networkType": "ethereum",
  "devdoc": {
    "kind": "dev",
    "methods": {},
    "version": 1
  },
  "userdoc": {
    "kind": "user",
    "methods": {},
    "version": 1
  }
}